:100000000C94F4000E940400CF92DF92EF92FF92D2
:100010000F931F9387E690E09093C5008093C400F0
:1000200086E08093C20088E08093C100259A82E632
:100030000E94DF008FE60E94DF008FE60E94DF0053
:1000400084E70E94DF008AE30E94DF0080E20E94D2
:10005000DF0081E40E94DF0084E50E94DF008DE67E
:100060000E94DF0085E60E94DF0087E60E94DF0035
:1000700081E60E94DF0083E30E94DF0082E30E94AA
:10008000DF0088E30E94DF0080E50E94DF0080E25D
:100090000E94DF0082E70E94DF0085E60E94DF0009
:1000A00081E60E94DF0084E60E94DF0089E70E946B
:1000B000DF008DE00E94DF008AE00E94DF0080E028
:1000C00090E07C016CE070E01D9A809100019091BD
:1000D0000101019690930101809300018CE66B0170
:1000E0000E94DF008FE60E94DF008FE60E94DF00A3
:1000F00080E70E94DF0080E20E94DF0000910001A3
:100100001091010180E30E94DF0088E70E94DF0078
:10011000C801892F82958F7099270E94E700812F4F
:100120000E94E700C801929582958F7089279F7081
:1001300089270E94E700802F0E94E7008AE30E943F
:10014000DF0080E20E94DF008CE40E94DF0085E493
:100150000E94DF0084E40E94DF0080E20E94DF0052
:1001600084E70E94DF008FE60E94DF0087E60E949E
:10017000DF0087E60E94DF008CE60E94DF0085E654
:100180000E94DF0084E60E94DF008DE00E94DF0015
:100190008AE00E94DF00B60155E39701C90141E002
:1001A000811595072607370708F4412D4170403027
:1001B00009F08ACF8F5F9F4F2F4F3F4FF0CF909125
:1001C000C00090729030D9F38093C60008958F706C
:1001D000982F90638A3010F0895A982F892F0E94A7
:1001E000DF0008950C94F400E8E1F2E0A0E0B1E053
:1001F00080E091E002C025912D93A817B907D9F7A7
:10020000A0E0B1E084E091E020E001C02D93A817C8
:08021000B907E1F70E940200AA
:00000001FF
