:100000000C9482001092C50087E68093C400809112
:10001000C0008D7F8093C00086E08093C20088E19D
:100020008093C10008958A3041F49091C00090728D
:100030009030D9F39DE09093C6009091C0009072EB
:100040009030D9F38093C60080E090E00895AF929D
:10005000BF92CF92DF92EF92FF920F931F930E9475
:100060000200259A84E391E068E170E00E945A0062
:100070008DE491E07C0186E090E06C0180E090E00E
:100080005C010CE010E01D9AC701B6010E945A0005
:1000900055E39501C90141E0811595072007310716
:1000A00008F4412D4170403071F78F5F9F4F2F4F03
:1000B0003F4FF1CFAF92BF92CF92DF92EF92FF927C
:1000C0000F931F938B017C0180E090E06C018017FF
:1000D000910758F4D701A80FB91F5C018C91B601A4
:1000E0000E941300C5010196F2CF1F910F91FF905E
:1000F000EF90DF90CF90BF90AF9008950E942700BF
:100100000C948200E4E5F1E0A0E0B1E080E091E051
:1001100002C025912D93A817B907D9F7A0E0B1E047
:1001200080E091E020E001C02D93A817B907E1F726
:100130000E947E00626F6F743A2041546D65676162
:10014000333238502072656164790D0A0074696336
:040150006B0D0A0029
:00000001FF
