:100000000C94FE000C9408040C942F040C9426010C
:100010000C9426010C9426010C9426010C942601C4
:100020000C9426010C9426010C9426010C94531870
:100030000C9426010C9426010C9426010C942601A4
:100040000C9473010C9426010C94F2170C941F1855
:100050000C9426010C9426010C9426010C94260184
:100060000C9426010C9426010000000800020100F7
:100070000003040700000000000000000102040863
:100080001020408001020408102001020408102002
:10009000040404040404040402020202020203032E
:1000A00003030303000000002300260029000000D2
:1000B0000000250028002B0000000000240027007D
:1000C0002A004E414E494E495459494E46CDCCCC5A
:1000D0003D0AD7233C17B7D13877CC2B329595E61C
:1000E000241FB14F0A000020410000C84200401CFC
:1000F0004620BCBE4CCA1B0E5AAEC59D7400407A49
:1001000010F35A00A0724E18090010A5D4E80000A0
:10011000E87648170000E40B54020000CA9A3B003E
:100120000000E1F505000080969800000040420FB5
:10013000000000A08601000000102700000000E879
:1001400003000000006400000000000A000000003E
:10015000000100000000002C76D888DC674F0823DF
:10016000DFC1DFAE59E1B1B796E5E3E453C63AE645
:1001700051997696E8E6C28426EB898C9B62ED4025
:100180007C6FFCEFBC9C9F40F2BAA56FA5F4900574
:100190005A2AF75C936B6CF9676DC11BFCE0E40DA8
:1001A00047FEF520E6B500D0ED902E03009435779C
:1001B000050080841E080000204E0A000000C80CC4
:1001C000333333330F986E12831141EF8D2114892D
:1001D0003BE65516CFFEE6DB18D1844B381BF77C87
:1001E0001D901DA4BBE424203284725E228100C9CC
:1001F000F124ECA1E53D2700B01BDF1B11241FBE3D
:10020000CFEFD8E0DEBFCDBF11E0A0E0B1E0ECE37E
:10021000FFE402C005900D92A237B107D9F722E0A2
:10022000A2E7B1E001C01D92AB36B207E1F710E0E2
:10023000CEEFD0E004C02197FE010E94971ECC3F74
:10024000D107C9F70E94811B0C949C270C940000D5
:100250000F931F9368EE73E000E010E0C8010E9466
:10026000131B60E875E2C8010E94151B85E191E04F
:100270000E94211B03E010E0812DB8010E94341B75
:100280008CE291E00E941C1BC8010E942D1B1F9153
:100290000F9108956091720170917301812D0E94F8
:1002A000441B209172013091730180910001909163
:1002B0000101280F391F3093730120937201245BD1
:1002C00030404FEF2D34340738F4919581959109E2
:1002D00090930101809300016FE070E080E090E076
:1002E0000E94131B08951F921FB61F9211242F9373
:1002F0003F938F939F93AF93BF938091740190919D
:100300007501A0917601B091770130917C0123E0D5
:10031000230F2D3750F50196A11DB11D20937C01AF
:100320008093740190937501A0937601B093770147
:100330008091780190917901A0917A01B0917B012F
:100340000196A11DB11D8093780190937901A0932E
:100350007A01B0937B01BF91AF919F918F913F91B3
:100360002F911F901FBE1F90189526E8230F02960D
:10037000A11DB11DD3CFCF93DF9300D000D0CDB757
:10038000DEB78FB7F89420917401309175014091D8
:1003900076015091770129833A834B835C838FBF29
:1003A00069817A818B819C810F900F900F900F90C3
:1003B000DF91CF910895CF93DF9300D000D0CDB7D8
:1003C000DEB73FB7F8948091780190917901A091C0
:1003D0007A01B0917B0126B5A89B05C02F3F19F08B
:1003E0000196A11DB11D3FBFBA2FA92F982F8827B5
:1003F000820F911DA11DB11D9C01AD0162E0220F74
:10040000331F441F551F6A95D1F7CA01B9010F90D8
:100410000F900F900F90DF91CF9108958F929F9240
:10042000AF92BF92CF92DF92EF92FF92CF93DF9382
:1004300000D000D0CDB7DEB76B017C010E94DB019C
:100440004B015C01C114D104E104F104F9F00E94F4
:10045000D3030E94DB01DC01CB0188199909AA09A9
:10046000BB09883E9340A105B10560F321E0C21AA3
:10047000D108E108F10888EE880E83E0981EA11CDF
:10048000B11CC114D104E104F10419F70F900F90CD
:100490000F900F90DF91CF91FF90EF90DF90CF9072
:1004A000BF90AF909F908F9008958230910538F063
:1004B000880F991F880F991F05970197F1F70895E5
:1004C000789484B5826084BD84B5816084BD85B52F
:1004D000826085BD85B5816085BDEEE6F0E08081F6
:1004E00081608083E1E8F0E0108280818260808317
:1004F000808181608083E0E8F0E08081816080839A
:10050000E1EBF0E0808184608083E0EBF0E08081CB
:1005100081608083EAE7F0E080818460808380816D
:100520008260808380818160808380818068808315
:100530001092C1000895843099F038F48230C1F0EF
:10054000833041F0813081F008958730A1F0883008
:10055000C1F00895809180008F7780938000089586
:10056000809180008F7DF9CF84B58F7784BD089509
:1005700084B58F7DFBCF8091B0008F778093B000E2
:1005800008958091B0008F7DF9CFCF93DF9390E0F5
:10059000FC01E458FF4F249180579F4FFC01849148
:1005A0008823C9F090E0880F991FFC01E854FF4FA1
:1005B000A591B491FC01E255FF4FC591D491611111
:1005C0000DC09FB7F8948C91209582238C938881DD
:1005D000282328839FBFDF91CF910895623051F483
:1005E0009FB7F8943C91822F809583238C93E88168
:1005F0002E2BEFCF8FB7F894EC912E2B2C938FBF2F
:10060000EACF1F93CF93DF93162F282F30E0F90105
:10061000E859FF4F8491F901E458FF4FD491F90153
:10062000E057FF4FC491CC23A1F081110E949B029F
:10063000EC2FF0E0EE0FFF1FE255FF4FA591B491B4
:100640008FB7F894EC91111108C0D095DE23DC939C
:100650008FBFDF91CF911F910895DE2BF8CFCF93FD
:10066000DF93282F30E0F901E859FF4F8491F90119
:10067000E458FF4FD491F901E057FF4FC491CC23C8
:10068000A1F081110E949B02EC2FF0E0EE0FFF1F02
:10069000EC55FF4FA591B491EC91ED2381E090E0F2
:1006A00009F480E0DF91CF91089580E090E0FACFE7
:1006B0008093020108958E3008F08E50209102013F
:1006C00090E4299F900111248770822B80937C00F5
:1006D00080917A00806480937A0080917A0086FD10
:1006E000FCCF809178009091790008951F93CF936B
:1006F000DF93182FEB0161E00E94C502209739F4C7
:1007000060E0812FDF91CF911F910C940103CF3FC7
:10071000D10511F461E0F5CFE12FF0E0E859FF4F8A
:10072000E491E43071F150F4E230E1F0E330F9F0BB
:10073000E13081F0C038D1051CF3ECCFE73059F13E
:10074000E830C1F78091B00080628093B000C09320
:10075000B40004C084B5806884BDC7BDDF91CF916B
:100760001F91089584B5806284BDC8BDF7CF809184
:100770008000806880938000D0938900C0938800B7
:10078000EDCF80918000806280938000D0938B00B9
:10079000C0938A00E3CF8091B00080688093B0005E
:1007A000C093B300DBCF089508959A018230E8F436
:1007B000E82FF0E0EE0FFF1FED5FFE4F71836083C7
:1007C000813041F0809169008C7F282B2093690053
:1007D000E89A089580916900837F220F331F220FCA
:1007E000331F282B20936900E99A0895823068F41A
:1007F000E82FF0E0813051F0E898EE0FFF1FED5F39
:10080000FE4F84ED93E0918380830895E998F5CFBE
:100810001F920F920FB60F9211242F933F934F9375
:100820005F936F937F938F939F93AF93BF93EF9358
:10083000FF93E0910301F09104010995FF91EF917D
:10084000BF91AF919F918F917F916F915F914F91E8
:100850003F912F910F900FBE0F901F9018951F92F0
:100860000F920FB60F9211242F933F934F935F93E4
:100870006F937F938F939F93AF93BF93EF93FF9368
:10088000E0910501F09106010995FF91EF91BF916B
:10089000AF919F918F917F916F915F914F913F9118
:1008A0002F910F900FBE0F901F90189590E080E051
:1008B000089508950895CF93DF9300D000D0CDB769
:1008C000DEB769837A838B839C8389819A81AB812C
:1008D000BC810097A105B10551F0BC01CD010F907D
:1008E0000F900F900F90DF91CF910C94D5200F9027
:1008F0000F900F900F90DF91CF910895CF93DF93DA
:10090000CDB7DEB728970FB6F894DEBF0FBECDBFC8
:1009100069837A838B839C8389819A81AB81BC8133
:10092000892B8A2B8B2B61F00E946A2029813A81C6
:100930004B815C810E946D1E69837A838B839C83CB
:1009400069817A818B819C8128960FB6F894DEBFED
:100950000FBECDBFDF91CF910895CF92DF92EF927E
:10096000FF92CF93DF9300D000D0CDB7DEB76B01FD
:100970007C01C901DA01C816D906EA06FB0664F44F
:100980002C193D094E095F09CA01B9010E947E0474
:10099000C60ED71EE81EF91EC701B6010F900F90B4
:1009A0000F900F90DF91CF91FF90EF90DF90CF905D
:1009B00008954F925F926F927F928F929F92AF9223
:1009C000BF92CF92DF92EF92FF920F931F93CF933C
:1009D000DF93CDB7DEB728970FB6F894DEBF0FBE12
:1009E000CDBF69837A838B839C8329013A01ED8291
:1009F000FE820F8318878A2C9B2C560129813A810D
:100A00004B815C8124193509460957098B8D9C8DD2
:100A1000AD8DBE8D7C018D01E818F9080A091B090E
:100A2000C801B7010E942F1E2D813E814F8158853C
:100A300024193509460957090E946D1EDA01C901BA
:100A4000880D991DAA1DBB1DBC01CD0128960FB6AE
:100A5000F894DEBF0FBECDBFDF91CF911F910F91F4
:100A6000FF90EF90DF90CF90BF90AF909F908F90CE
:100A70007F906F905F904F9008950895982F862FE4
:100A80000895FC0180819181009711F00C946F1FF3
:100A90000895CF93DF93EC0188819981009711F03D
:100AA0000E946F1F198218821D821C821B821A826B
:100AB000DF91CF9108950F931F93CF93DF93EC01B4
:100AC0008B016F5F7F4F888199810E94DE209C019E
:100AD00080E02115310529F0398328831B830A839F
:100AE00081E0DF91CF911F910F910895CF93DF9314
:100AF000EC01CB0128813981232B49F02A813B81EC
:100B00002617370720F081E0DF91CF910895BC01CF
:100B1000CE010E945B058823B9F38C819D81892BCE
:100B200091F7E881F9811082EECFEF92FF920F9357
:100B30001F93CF93DF93EC017B018A01BA010E94DE
:100B4000760581110BC0CE010E944905CE01DF91CF
:100B5000CF911F910F91FF90EF9008950C831D830B
:100B6000B701888199810E942E22F0CFCF93DF9325
:100B7000FC01DB0111821082138212821582148221
:100B8000AB2B61F0EB0109900020E9F72197AE0152
:100B9000461B570BDF91CF910C949505DF91CF91B8
:100BA0000895EF92FF920F931F93CF93DF93EC0181
:100BB0007B018A01BA010E94760581110BC0CE012A
:100BC0000E944905CE01DF91CF911F910F91FF90B7
:100BD000EF9008950C831D83B701888199810E944D
:100BE000EF21F0CF0F931F93CF93DF938C01EB0195
:100BF000FC0180819181009791F068817981611574
:100C0000710559F020E93BE1232B39F042815381F2
:100C10002C813D8142175307A0F40E946F1F8881E9
:100C20009981F801918380838A819B819383828358
:100C30008C819D8195838483198218821B821A82FC
:100C400007C00E942E228C819D81F80195838483A8
:100C50001D821C82DF91CF911F910F910895FC019D
:100C60001182108213821282158214820C94F20572
:100C7000FC011182108213821282158214820C945C
:100C8000F205CF93DF93EC01FB018617970749F03C
:100C9000608171816115710541F0448155810E9427
:100CA0009505CE01DF91CF9108950E944905F9CFB6
:100CB000FC011182108213821282158214820C941C
:100CC0004106CF93DF93EC018617970711F00E943E
:100CD000F205CE01DF91CF910895CF93DF93EC0120
:100CE0006817790711F00E94F205CE01DF91CF91CC
:100CF0000895CF93DF93D82FC92FFB01EF2B79F005
:100D0000DB010D900020E9F71197AD01461B570B51
:100D10000E9495058D2F9C2FDF91CF9108950E9401
:100D20004905F8CFCF93DF9300D0CDB7DEB7FC01F4
:100D300011821082138212821582148269831A82B0
:100D4000BE016F5F7F4F0E9479060F900F90DF9179
:100D5000CF9108950F931F93CF93DF93CDB7DEB755
:100D600029970FB6F894DEBF0FBECDBF8C01862F3A
:100D7000F80111821082138212821582148250E0CF
:100D8000BE016F5F7F4F90E00E94E922BE016F5F5E
:100D90007F4FC8010E94790629960FB6F894DEBFEE
:100DA0000FBECDBFDF91CF911F910F9108950F938B
:100DB0001F93CF93DF93CDB7DEB762970FB6F8944A
:100DC000DEBF0FBECDBF8C01CB01F80111821082B6
:100DD000138212821582148250E0BE016F5F7F4F32
:100DE0000E947722BE016F5F7F4FC8010E94790683
:100DF00062960FB6F894DEBF0FBECDBFDF91CF91E4
:100E00001F910F9108950F931F93CF93DF93CDB749
:100E1000DEB761970FB6F894DEBF0FBECDBF8C0171
:100E2000CB01F80111821082138212821582148282
:100E300050E0BE016F5F7F4F0E94E922BE016F5FED
:100E40007F4FC8010E94790661960FB6F894DEBF05
:100E50000FBECDBFDF91CF911F910F9108950F93DA
:100E60001F93CF93DF93CDB7DEB7A2970FB6F89459
:100E7000DEBF0FBECDBF8C01CB01BA01F8011182DC
:100E80001082138212821582148230E0AE014F5F0D
:100E90005F4F0E948D22BE016F5F7F4FC8010E948D
:100EA0007906A2960FB6F894DEBF0FBECDBFDF91D4
:100EB000CF911F910F9108950F931F93CF93DF93BD
:100EC000CDB7DEB7A1970FB6F894DEBF0FBECDBF8A
:100ED0008C01CB01BA01F8011182108213821282B7
:100EE0001582148230E0AE014F5F5F4F0E94BC223A
:100EF000BE016F5F7F4FC8010E947906A1960FB6B1
:100F0000F894DEBF0FBECDBFDF91CF911F910F913F
:100F10000895EF92FF920F931F93CF93DF93CDB776
:100F2000DEB7E7970FB6F894DEBF0FBECDBF7C01EA
:100F3000842FF7011182108213821282158214828B
:100F40002A3008F029E042E0420F8E010F5F1F4F68
:100F50008CAB5DAB6EAB7FAB6CA97DA98EA99FA955
:100F60000E94AC1EBC01C7010E947906E7960FB62D
:100F7000F894DEBF0FBECDBFDF91CF911F910F91CF
:100F8000FF90EF900895EF92FF920F931F93CF93EE
:100F9000DF93CDB7DEB7E7970FB6F894DEBF0FBE8D
:100FA000CDBF7C01842FF70111821082138212823F
:100FB000158214822A3008F029E042E0420F8E01A7
:100FC0000F5F1F4F8CAB5DAB6EAB7FAB6CA97DA988
:100FD0008EA99FA90E94AC1EBC01C7010E94790680
:100FE000E7960FB6F894DEBF0FBECDBFDF91CF916D
:100FF0001F910F91FF90EF9008950F931F93CF9340
:10100000DF93D82FC92F8B016115710581F0CB01BA
:101010000E94F621AC01B8018D2F9C2F0E94D105B2
:101020008D2F9C2FDF91CF911F910F9108950E94DA
:101030004905F6CFFC0111821082138212821582BB
:1010400014820C94FD07EF92FF920F931F93CF939E
:10105000DF93EC017B01CA01672B41F480E0DF9153
:10106000CF911F910F91FF90EF900895892BA9F0D8
:101070000C811D81040F151FB801CE010E94760559
:10108000882361F3288139818C819D81B701820F8A
:10109000931F0E942E221D830C8381E0E0CFFB0171
:1010A00044815581608171810C942308FB01EF2BF1
:1010B00051F0DB010D900020E9F71197AD01461BBF
:1010C000570B0C94230880E00895CF93DF9300D052
:1010D000CDB7DEB769831A8241E050E0BE016F5F91
:1010E0007F4F0E9423080F900F90DF91CF910895BA
:1010F000EF92FF920F931F93CF93DF9300D000D016
:10110000CDB7DEB77C01862F4AE08E010F5F1F4FFF
:10111000B80190E00E948222F80101900020E9F7D6
:101120003197AF01401B510BB801C7010E94230842
:101130000F900F900F900F90DF91CF911F910F9113
:10114000FF90EF900895EF92FF920F931F93CF932C
:10115000DF93CDB7DEB728970FB6F894DEBF0FBE8A
:10116000CDBF7C01CB014AE08E010F5F1F4FB8015C
:101170000E948222F80101900020E9F73197AF0127
:10118000401B510BB801C7010E94230828960FB6D7
:10119000F894DEBF0FBECDBFDF91CF911F910F91AD
:1011A000FF90EF900895EF92FF920F931F93CF93CC
:1011B000DF9300D000D000D00F92CDB7DEB77C0116
:1011C000CB014AE08E010F5F1F4FB8010E94F4224D
:1011D000F80101900020E9F73197AF01401B510B56
:1011E000B801C7010E94230827960FB6F894DEBF06
:1011F0000FBECDBFDF91CF911F910F91FF90EF9068
:101200000895EF92FF920F931F93CF93DF93CDB783
:10121000DEB72E970FB6F894DEBF0FBECDBF7C01B0
:10122000CB01BA012AE08E010F5F1F4FA8010E9477
:101230009822F80101900020E9F73197AF01401B97
:10124000510BB801C7010E9423082E960FB6F894DF
:10125000DEBF0FBECDBFDF91CF911F910F91FF90E9
:10126000EF900895EF92FF920F931F93CF93DF9328
:10127000CDB7DEB72D970FB6F894DEBF0FBECDBF4A
:101280007C01CB01BA012AE08E010F5F1F4FA8013C
:101290000E94C722F80101900020E9F73197AF01C1
:1012A000401B510BB801C7010E9423082D960FB6B1
:1012B000F894DEBF0FBECDBFDF91CF911F910F918C
:1012C000FF90EF900895EF92FF920F931F93CF93AB
:1012D000DF93CDB7DEB768970FB6F894DEBF0FBEC9
:1012E000CDBF7C01842F8E010F5F1F4F22E044E0B1
:1012F0008D8B5E8B6F8B788F6D897E898F89988DB2
:101300000E94AC1EBC01FC0101900020E9F731975E
:10131000AF01481B590BC7010E94230868960FB6FE
:10132000F894DEBF0FBECDBFDF91CF911F910F911B
:10133000FF90EF900895EF92FF920F931F93CF933A
:10134000DF93CDB7DEB768970FB6F894DEBF0FBE58
:10135000CDBF7C01842F8E010F5F1F4F22E044E040
:101360008D8B5E8B6F8B788F6D897E898F89988D41
:101370000E94AC1EBC01FC0101900020E9F73197EE
:10138000AF01481B590BC7010E94230868960FB68E
:10139000F894DEBF0FBECDBFDF91CF911F910F91AB
:1013A000FF90EF900895EF92FF920F931F93CF93CA
:1013B000DF93EC017B016115710541F480E0DF9161
:1013C000CF911F910F91FF90EF900895CB010E9454
:1013D000F6210097A9F00C811D81080F191FB80193
:1013E000CE010E947605882349F3288139818C81BA
:1013F0009D81B701820F931F0E94EF211D830C83F3
:1014000081E0DDCFCF93DF93D82FC92FFB0144813B
:101410005581608171810E942308811104C08D2F44
:101420009C2F0E9449058D2F9C2FDF91CF9108950D
:10143000CF93DF93D82FC92FFB01EF2B49F48D2FCA
:101440009C2F0E9449058D2F9C2FDF91CF910895ED
:10145000DB010D900020E9F71197AD01461B570BFA
:101460000E942308882359F3EECFCF93DF93D82F20
:10147000C92F0E946508811104C08D2F9C2F0E94E6
:1014800049058D2F9C2FDF91CF910895CF93DF9346
:10149000D82FC92F0E947808811104C08D2F9C2F4E
:1014A0000E9449058D2F9C2FDF91CF910895CF93F6
:1014B000DF93D82FC92F0E94A308811104C08D2F5C
:1014C0009C2F0E9449058D2F9C2FDF91CF9108956D
:1014D000CF93DF93D82FC92F0E94D308811104C066
:1014E0008D2F9C2F0E9449058D2F9C2FDF91CF912E
:1014F0000895CF93DF93D82FC92F0E94010981113E
:1015000004C08D2F9C2F0E9449058D2F9C2FDF91A9
:10151000CF910895CF93DF93D82FC92F0E9432091E
:10152000811104C08D2F9C2F0E9449058D2F9C2F67
:10153000DF91CF910895CF93DF93D82FC92F0E94C9
:101540006309811104C08D2F9C2F0E9449058D2FA6
:101550009C2FDF91CF910895CF93DF93D82FC92F80
:101560000E949B09811104C08D2F9C2F0E94490568
:101570008D2F9C2FDF91CF910895CF93DF93D82F9C
:10158000C92F0E94D309811104C08D2F9C2F0E9466
:1015900049058D2F9C2FDF91CF910895DC01FB0130
:1015A0008D919C911197608171810097C9F06115AF
:1015B0007105A1F414962D913C91232BA1F0FC010F
:1015C000808190E0089584819581892B61F0FB01F1
:1015D000808190E091958195910908950C94252240
:1015E0006115710581F790E080E00895FC01DB0151
:1015F0002481358114968D919C912817390739F4EF
:10160000CF010E94CE0A9C0181E0232B09F080E0EB
:101610000895DC01FB0114968D919C911597892BFF
:1016200041F491E03097A1F08081882389F090E027
:101630000FC00D90BC91A02DEF2B19F491E08C916F
:10164000F4CFCD010E9425229C0191E0232B79F754
:10165000892F08950E94CE0A892F881F8827881F06
:1016600008950E94CE0A9C0181E0121613060CF028
:1016700080E008950E94CE0A9C0181E012161306B4
:101680000CF480E008950E94CE0A892F8095881F6F
:101690008827881F0895CF92DF92EF92FF920F93D1
:1016A0001F93CF93DF93DC01FB018617970781F12E
:1016B00014968D919C9115972481358182179307FB
:1016C000D9F4892B29F1E080F180CD90DC90F601EE
:1016D00081916F018823E1F0082E000C990B0E9484
:1016E000DF218C01E7018991082E000C990B0E94E3
:1016F000DF210817190751F080E0DF91CF911F918A
:101700000F91FF90EF90DF90CF9008957E01DFCF93
:1017100081E0F3CFDC01FB01CA01448155811496BD
:101720002D913C911597241B350B2817390790F004
:101730002D913C912115310569F060817181611510
:10174000710541F0820F931F0E9435229C0181E0B8
:10175000232B09F080E00895FC01DB012481358111
:1017600014968D919C912817390728F050E040E09D
:10177000CF010C948A0B80E00895DC01FB011496E4
:101780002D913C911597448155812417350798F088
:101790008D919C91009779F060817181611571053F
:1017A00051F0241B350B820F931F0E9425229C01B0
:1017B00081E0232B09F080E00895FC01CB01248116
:1017C00035816217730730F420813181820F931FB6
:1017D000FC0140830895FC01848195816817790795
:1017E00020F480819181009729F410927D018DE78A
:1017F00091E00895860F971F0895FC0184819581DB
:101800006817790748F480819181009729F0860F45
:10181000971FFC018081089580E008950C94FD0BD2
:101820000F931F93CF93DF93FC01EB01CA01B90122
:10183000009741F0209731F004811581201731077E
:1018400030F01882DF91CF911F910F910895019789
:10185000021B130B8017910708F48C018081918182
:10186000680F791FA801CE010E944322C00FD11F2B
:10187000E8CFCF93DF93FC01CA0124813581421761
:10188000530770F4C081D181062E000C770B8C0FAA
:101890009D1F0E941A229C018C1B9D0B232B11F46F
:1018A0008FEF9FEFDF91CF91089550E040E00C94CF
:1018B000390CCF93DF93FC01DB01CA012481358110
:1018C0004217530768F4C081D1816D917C918C0FD0
:1018D0009D1F0E945D229C018C1B9D0B232B11F4EC
:1018E0008FEF9FEFDF91CF91089550E040E00C948F
:1018F000590CDF92EF92FF920F931F93CF93DF93D8
:101900008C01EA01DC0114968D919C911597481782
:10191000590750F08FEF9FEFDF91CF911F910F91FB
:10192000FF90EF90DF9008952196ED91FC91119733
:10193000EC0FFD1FD0801082ED90FC90062E000C65
:10194000770BC7010E9452229C01CE0DDF1DD88269
:10195000892B01F3F80180819181A901481B590B62
:10196000CA01DACFFC0144815581415051090C94E0
:10197000790CAF92BF92CF92DF92EF92FF920F93CA
:101980001F93CF93DF93FC015B01EA01DB01149607
:101990002D913C912115310541F18481958100976C
:1019A00021F18217930708F14817590710F0EC014D
:1019B0002197C080D180C6010FEF1FEF7601EC0E9A
:1019C000FD1EE816F90698F0F501608171810E940C
:1019D0005D229C01009759F08C199D09C817D90701
:1019E00008F08C01C9010196ECCF0FEF1FEFC80181
:1019F000DF91CF911F910F91FF90EF90DF90CF90EB
:101A0000BF90AF900895FC01DB014481558114968D
:101A10008D919C91481B590BCF010C94B90CAF923E
:101A2000BF92CF92DF92EF92FF920F931F93CF93CB
:101A3000DF935C016B018A01E9012417350720F46B
:101A4000812F8901C42FD82F67E471E0C5010E945E
:101A5000B605D6011496ED90FC900E151F05D0F436
:101A6000CE15DF0508F47E01D601ED91FC911197AA
:101A7000EE0DFF1DC08110826D917C91600F711F72
:101A8000C5010E947906F60180819181E80EF91E58
:101A9000D701CC93C501DF91CF911F910F91FF909A
:101AA000EF90DF90CF90BF90AF900895DC01ED9163
:101AB000FC91309749F08191882331F08613FBCF58
:101AC000DF0111974C93F7CF08952F923F924F92D9
:101AD0005F926F927F928F929F92AF92BF92CF92BE
:101AE000DF92EF92FF920F931F93CF93DF938C01BE
:101AF0006B017A01FC01448055804114510409F4C2
:101B0000CDC0FB01848095808114910409F4C6C086
:101B1000FA01848195813C0168187908F801C08137
:101B2000D18188159905B9F4F60160817181CE01E2
:101B30000E945D22EC01009709F4B0C0F7016081BA
:101B40007181448155810E94FF21F7018481958133
:101B5000C80FD91FE9CF77FC11C0FB01208031806D
:101B60005201B101CE010E945D22EC01892B09F4E2
:101B700049C0C80DD91DA60CB71CF3CF5E01F601F4
:101B800060817181CE010E945D222C01009721F1BC
:101B90004C018C1A9D0AA401BE01C5010E94FF21BF
:101BA000A80CB91CF7016081718144815581C50180
:101BB0000E94FF21F70184819581A80EB91EF601CC
:101BC000C481D581C40DD51DF80184819581860D10
:101BD000971D95838483D3CFBE01C501DF91CF913B
:101BE0001F910F91FF90EF90DF90CF90BF90AF903B
:101BF0009F908F907F906F905F904F903F902F902D
:101C00000C942E224A145B0409F448C0F801828126
:101C100093818A159B05E0F1F8014481558141507B
:101C2000510957FD3BC0B601C8010E94B90CEC0137
:101C300097FD34C0F60124813581280F391FF80142
:101C400080819181820F931F44815581421B530BE8
:101C5000BC01860D971D0E940822F80184819581A0
:101C6000860D971D9583848320813181820F931F78
:101C7000FC011082F80180819181F70160817181FE
:101C8000448155818C0F9D1F0E94FF21AE01C7CF5B
:101C9000B501C8010E945B058111BECFDF91CF91D4
:101CA0001F910F91FF90EF90DF90CF90BF90AF907A
:101CB0009F908F907F906F905F904F903F902F906C
:101CC0000895CF93DF93EC01CB019A014C815D81A4
:101CD0006417750708F521153105F1F0BA01681B85
:101CE000790B2617370708F4B90128813981461B7B
:101CF000570B5D834C83481B590B680F791F620F8C
:101D0000731F820F931F0E944322E881F9818C8107
:101D10009D81E80FF91F1082DF91CF9108954FEF59
:101D20005FEF0C94610ECF93DF93FC01C081D181F2
:101D3000209761F08991882349F0082E000C990BB7
:101D40000E94DF21FE0131978083F4CFDF91CF9194
:101D50000895CF93DF93FC01C081D181209761F07A
:101D60008991882349F0082E000C990B0E94E721E5
:101D7000FE0131978083F4CFDF91CF910895AF9228
:101D8000BF92CF92DF92EF92FF920F931F93CF9368
:101D9000DF938C01DC01ED90FC901197E114F104CC
:101DA000E1F11496CD91DC912097B9F157016501CD
:101DB000F50181915F01082E000C990B0E94D6213C
:101DC000892BA9F72197CE0DDF1D8881082E000CE5
:101DD000990B0E94D621892B29F0CC15DD0510F036
:101DE0002197F3CFAE014F5F5F4F4C195D09D801CA
:101DF00015965C934E931497EC14FD0420F4B601F1
:101E0000C7010E94FF21D801ED91FC911197149612
:101E10008D919C91E80FF91F1082DF91CF911F9156
:101E20000F91FF90EF90DF90CF90BF90AF9008950B
:101E3000FC0180819181009711F00C94AF2160E04A
:101E400070E0CB010895FC0180819181009711F031
:101E50000C94AB2160E070E0CB0108950C94230F4B
:101E6000CF92DF92EF92FF920F931F93CF93DF9366
:101E70007C016A0110E000E00C151D0581F0EB010A
:101E8000D701ED91FC910190F081E02D6991C7019E
:101E90000995892B21F00F5F1F4FBE01EDCFC801BF
:101EA000DF91CF911F910F91FF90EF90DF90CF9036
:101EB0000895EF92FF920F931F93CF93DF938C01BE
:101EC0007B01D0E0C0E0F701EC0FFD1F64916623B9
:101ED00061F0D801ED91FC910190F081E02DC801F5
:101EE0000995892B11F02196EECFCE01DF91CF918C
:101EF0001F910F91FF90EF900895DC01FB01448149
:101F0000558160817181ED91FC910280F381E02D1A
:101F100009940C94951BDC01ED91FC910190F081EA
:101F2000E02D0994382F292FCB01DB01ED91FC9195
:101F30000190F081E02D632F722F099465E471E028
:101F40000C94951B0F931F93CF93DF93D82FC92F1A
:101F50000E94590F8C018D2F9C2F0E949E0F800F85
:101F6000911FDF91CF911F910F9108950F931F93B0
:101F7000CF93DF93D82FC92F0E947D0F8C018D2F17
:101F80009C2F0E949E0F800F911FDF91CF911F9178
:101F90000F9108950F931F93CF93DF93D82FC92FDD
:101FA0000E94951B8C018D2F9C2F0E949E0F800FED
:101FB000911FDF91CF911F910F9108950F931F9360
:101FC000CF93DF93D82FC92F0E948B0F8C018D2FB9
:101FD0009C2F0E949E0F800F911FDF91CF911F9128
:101FE0000F9108950F931F93CF93DF93D82FC92F8D
:101FF0000E94920F8C018D2F9C2F0E949E0F800FAC
:10200000911FDF91CF911F910F9108956F927F9251
:102010008F929F92AF92BF92CF92DF92EF92FF92F8
:102020000F931F93CF93DF93CDB7DEB7A1970FB672
:10203000F894DEBF0FBECDBF3C01142F052F962EA6
:10204000872E19A2223008F42AE05E0181E2A80E50
:10205000B11CC22ED12CF12CE12C612F702F892DB7
:10206000982DA70196010E944B1E812F902FA92D1C
:10207000B82D122F032F942E852E6A3014F5605D33
:10208000F50162935F018C159D05AE05BF0528F72C
:10209000BF01C3010E94951BA1960FB6F894DEBF45
:1020A0000FBECDBFDF91CF911F910F91FF90EF90A9
:1020B000DF90CF90BF90AF909F908F907F906F9068
:1020C0000895695CDDCFCF92DF92EF92FF920F937C
:1020D0001F93CF93DF93EC016A017B01C901892B28
:1020E00081F4E881F9810190F081E02D642FCE0127
:1020F000DF91CF911F910F91FF90EF90DF90CF90E4
:1021000009942A303105F1F42AE0F7FE1BC06DE294
:10211000CE010E948B0F8C0144275527BA014C1920
:102120005D096E097F092AE0CE010E940610800F2A
:10213000911FDF91CF911F910F91FF90EF90DF9052
:10214000CF900895B701A601CE01DF91CF911F91E5
:102150000F91FF90EF90DF90CF900C9406109A01B2
:10216000AB01770F660B770B0C9463100F931F93E3
:10217000CF93DF93D82FC92F0E94AF108C018D2FE2
:102180009C2F0E949E0F800F911FDF91CF911F9176
:102190000F9108950F931F93CF93DF93D82FC92FDB
:1021A0000E9463108C018D2F9C2F0E949E0F800F28
:1021B000911FDF91CF911F910F910895F901EF2B9E
:1021C00041F4DC01ED91FC910190F081E02D642F50
:1021D00009940C9406109A01462F50E070E060E0DC
:1021E0000C94DE100F931F93CF93DF93D82FC92F3A
:1021F0000E94EB108C018D2F9C2F0E949E0F800F50
:10220000911FDF91CF911F910F9108959A01AB011A
:1022100070E060E00C94DE100F931F93CF93DF9378
:10222000D82FC92F0E9406118C018D2F9C2F0E9440
:102230009E0F800F911FDF91CF911F910F910895F5
:102240000F931F93CF93DF93D82FC92F0E94DE10D7
:102250008C018D2F9C2F0E949E0F800F911FDF916C
:10226000CF911F910F9108957F928F929F92AF927D
:10227000BF92CF92DF92EF92FF920F931F93CF9373
:10228000DF93CDB7DEB72A970FB6F894DEBF0FBE47
:10229000CDBF8A879987CA01DB0189839A83AB8383
:1022A000BC83B22E9A01AB01CB01B9010E942A1E58
:1022B00068E471E081112FC089819A81AB81BC8172
:1022C000BF778D839E83AF83B8872FEF3FEF4FE7B4
:1022D0005FE7BC01CD010E942A1E81110EC02FEFC5
:1022E0003FEF4FE75FE76D817E818F8198850E9488
:1022F000601C6CE471E0181674F02FEF3FEF4FE7AD
:102300005FE469817A818B819C810E94B81D1816D7
:10231000CCF460E571E08A8599852A960FB6F89429
:10232000DEBF0FBECDBFDF91CF911F910F91FF9008
:10233000EF90DF90CF90BF90AF909F908F907F9065
:102340000C94951B2FEF3FEF4FE75FEC69817A818B
:102350008B819C810E94601C87FDDBCF20E030E0F8
:10236000A90169817A818B819C810E94601C10E0A7
:1023700000E087FF0FC06DE28A8599850E948B0F70
:102380008C0189819A81AB81BC81B05889839A8301
:10239000AB83BC83F12C60E070E080E09FE3BF146E
:1023A00081F020E030E040E251E46D837E838F8352
:1023B00098876D817E818F8198850E94651CF3943A
:1023C000EECF29813A814B815C8169837A838B834B
:1023D0009C8369817A818B819C810E94F41B698333
:1023E0007A838B839C8369817A818B819C810E9413
:1023F000D71CA62EC72ED82EE92E0E94061D9B01A3
:10240000AC0169817A818B819C810E94F31B762EBD
:10241000872E982EF92E2AE04A2D5C2D6D2D7E2DCB
:102420008A8599850E940610080F191FBB2039F074
:102430006EE28A8599850E948B0F080F191FBA9446
:102440009FEFB91609F441C020E030E040E251E4CA
:1024500079828A829B82FC8269817A818B819C81CC
:102460000E94BD1D762E872E982EA92E69837A8311
:102470008B839C8369817A818B819C810E94D71C8C
:102480006B014AE050E08A8599850E940611080F89
:10249000191FC601B0E0A0E089839A83AB83BC8397
:1024A000B601CD010E94061D9B01AC0179828A8292
:1024B0009B82AC8269817A818B819C810E94F31B13
:1024C000762E872E982EF92EBACFC8012A960FB6EF
:1024D000F894DEBF0FBECDBFDF91CF911F910F915A
:1024E000FF90EF90DF90CF90BF90AF909F908F9034
:1024F0007F9008950C9434110F931F93CF93DF9323
:10250000D82FC92F0E9434118C018D2F9C2F0E942F
:102510009E0F800F911FDF91CF911F910F91089512
:10252000CF93DF93CDB7DEB72A970FB6F894DEBF0F
:102530000FBECDBF8D839E830E94BB016F837887C2
:1025400089879A87AD81BE8118966D937D938D930F
:102550009C931B97AD81BE81ED91FC9111970284F4
:10256000F385E02DCD01099597FF21C00E94BB01A5
:1025700069837A838B839C83ED81FE81808591853D
:10258000A285B38529813A814B815C81281B390B57
:102590004A0B5B0BDA01C901448155816681778161
:1025A00084179507A607B707A8F28FEF9FEF2A9623
:1025B0000FB6F894DEBF0FBECDBFDF91CF91089567
:1025C000CF93DF93CDB7DEB72A970FB6F894DEBF6F
:1025D0000FBECDBF8D839E830E94BB016F83788722
:1025E00089879A87AD81BE8118966D937D938D936F
:1025F0009C931B97AD81BE81ED91FC911197048452
:10260000F585E02DCD01099597FF21C00E94BB0102
:1026100069837A838B839C83ED81FE81808591859C
:10262000A285B38529813A814B815C81281B390BB6
:102630004A0B5B0BDA01C9014481558166817781C0
:1026400084179507A607B707A8F28FEF9FEF2A9682
:102650000FB6F894DEBF0FBECDBFDF91CF910895C6
:10266000FF920F931F93CF93DF93EC018B01F42E16
:10267000CE010E94E01297FD1DC08D329105D1F070
:102680009C01205331092A303105A0F0FF2019F0B8
:102690008E32910579F00130110551F002301105AB
:1026A00089F48D30910571F05CF40997029750F030
:1026B0008FEF9FEFDF91CF911F910F91FF900895C2
:1026C0008097B1F7E881F9810284F385E02DCE018E
:1026D0000995CECFFC0144835583668377830895A3
:1026E000BF92CF92DF92EF92FF920F931F93CF93FF
:1026F000DF9300D000D000D0CDB7DEB78C01498386
:1027000040E00E943013FC01C12CD12C760197FDD2
:1027100049C0B12C8981082E000C990B9E838D83B2
:10272000AD81BE81AE17BF07F9F0ED32F10509F4B6
:102730004BC0CF01C0970A97B8F4AAE0B0E0A70158
:1027400096010E948C1E69837A838B839C836F0120
:10275000FF0FEE08FF08C60ED71EE81EF91EB0E3F5
:10276000CB1AD108E108F108D801ED91FC9102845F
:10277000F385E02DC8010995C8010E94E012FC0113
:10278000C0970A9768F28D819E818E179F0741F24C
:10279000BB2041F0F094E094D094C094C11CD11CB3
:1027A000E11CF11CC701B60126960FB6F894DEBFF6
:1027B0000FBECDBFDF91CF911F910F91FF90EF9092
:1027C000DF90CF90BF900895BB24B394CDCF6F928C
:1027D0007F928F929F92AF92BF92CF92DF92EF92B1
:1027E000FF920F931F93CF93DF9300D000D000D0C0
:1027F000CDB7DEB78C01498341E00E943013FC0164
:1028000097FDA6C0812C912C80E8A82E9FE3B92EBD
:10281000C12CD12C7601712C612C8981082E000CE1
:10282000990B9E838D83AD81BE81AE17BF07A9F141
:10283000ED32F10509F486C0EE32F10509F485C0E8
:10284000CF01C0970A9748F5AAE0B0E0A70196012A
:102850000E948C1E69837A838B839C836F01FF0F98
:10286000EE08FF08C60ED71EE81EF91EB0E3CB1A0D
:10287000D108E108F108772081F02DEC3CEC4CEC1C
:102880005DE389829A82AB82BC8269817A818B8185
:102890009C810E94BD1D4B015C01D801ED91FC9112
:1028A0000284F385E02DC8010995C8010E94E01259
:1028B000FC01C0970A9708F4B6CFEE32F10519F47F
:1028C000772009F4B0CF8D819E818E179F0709F480
:1028D000AACF662041F0F094E094D094C094C11C3B
:1028E000D11CE11CF11CC701B6010E94081D772014
:1028F00061F09401A50169837A838B839C8369814C
:102900007A818B819C810E94BD1D69837A838B8330
:102910009C8369817A818B819C8126960FB6F8947D
:10292000DEBF0FBECDBFDF91CF911F910F91FF9002
:10293000EF90DF90CF90BF90AF909F908F907F905F
:102940006F90089566246394A8CF77247394A5CFDD
:1029500060E070E080E090E0D8CFCF92DF92EF921D
:10296000FF920F931F93CF93DF93D82EC92E8B0125
:102970007A01D0E0C0E0CE15DF0559F08D2D9C2DF9
:102980000E94901297FD05C0F801819321968F0156
:10299000F2CFCE01DF91CF911F910F91FF90EF9079
:1029A000DF90CF900895AF92BF92CF92DF92EF92D7
:1029B000FF920F931F93CF93DF93B82EA92E8A0116
:1029C0007901D0E0C0E0C62E660FDD08CE15DF0528
:1029D00071F08B2D9A2D0E94901297FD08C0C81699
:1029E000D90629F0F801819321968F01EFCFCE010E
:1029F000DF91CF911F910F91FF90EF90DF90CF90DB
:102A0000BF90AF9008950F931F93CF93DF93D82F6C
:102A1000C92F8B0167E471E00E94B605C8010E94CE
:102A20009012BC018D2F9C2F77FD03C00E9465087A
:102A3000F5CFDF91CF911F910F910895EF92FF9203
:102A40000F931F93CF93DF93D82FC92F7B01042FB0
:102A500067E471E00E94B605C7010E949012BC01B4
:102A6000002E000C110B8D2F9C2F77FD0AC006172E
:102A7000170739F00E946508C7010E949012BC0137
:102A8000F2CFDF91CF911F910F91FF90EF900895BA
:102A90002F923F924F925F926F927F928F929F926E
:102AA000AF92BF92CF92DF92EF92FF920F931F935C
:102AB000CF93DF933C01EB0186E0849F5001859F1B
:102AC000B00C1124A60EB71EFB01EA15FB0530F170
:102AD00088248394912CC3010E949012AC0197FD2D
:102AE0007AC0FE01EA15FB05B0F76081718124818F
:102AF0003581DB01A20FB31F8C91082E000C990BBE
:102B00008417950789F52F5F3F4F35832483828192
:102B100093812817390731F03696E4CF828193816B
:102B2000892B01F5EC1BFD0BF595E7952BEA3AEAAD
:102B3000E29FC001E39F900DF29F900D1124DF9161
:102B4000CF911F910F91FF90EF90DF90CF90BF90AA
:102B5000AF909F908F907F906F905F904F903F903D
:102B60002F9008953696B1CF21153105A9F2E48052
:102B7000F580C701019795838483DB01A80FB91FF6
:102B8000AC910A2E000CBB0BA417B50709F50097F2
:102B900019F495828482C0CF6B018901081B190B3F
:102BA000060F171F312C212CD6014D906D01D80135
:102BB0005D908D01451006C0BFEF2B1A3B0A281609
:102BC000390690F32816390691F6F582E482A4CFEF
:102BD000892B69F6A1CF8FEF9FEFB1CFEF92FF92D4
:102BE0000F931F93CF93DF93CDB7DEB72C970FB61C
:102BF000F894DEBF0FBECDBFF9013097F9F41E8205
:102C00001D8269837A834B835C8341E050E0BE017F
:102C10006F5F7F4F0E9448159C0181E0232B09F0D4
:102C200080E02C960FB6F894DEBF0FBECDBFDF91CB
:102C3000CF911F910F91FF90EF9008957E0125E0B5
:102C4000E20EF11C28E0D7011D922A95E9F769836D
:102C50007A834B835C83F887EF8309871A8742E086
:102C600050E0D5CF0F931F939A01DA010D90002009
:102C7000E9F711978D01041B150BDB010D90002066
:102C8000E9F71197AD01461B570B0E94EE151F91F6
:102C90000F910895CF93DF9300D000D000D0CDB72F
:102CA000DEB71E821D827A8369835C834B8341E099
:102CB00050E0BE016F5F7F4F0E9448159C0181E08C
:102CC000232B09F080E026960FB6F894DEBF0FBEE6
:102CD000CDBFDF91CF910895CF93DF9300D000D087
:102CE00000D0CDB7DEB7FB0101900020E9F73197A6
:102CF000E61BF70B1E821D827A836983FC83EB83BC
:102D000041E050E0BE016F5F7F4F0E9448159C017B
:102D100081E0232B09F080E026960FB6F894DEBF01
:102D20000FBECDBFDF91CF910895FC01818D228D23
:102D300090E0805C9F4F821B91098F7399270895C3
:102D4000FC01918D828D981731F0828DE80FF11D75
:102D5000858D90E008958FEF9FEF0895FC01918D90
:102D6000828D981761F0A28DAE0FBF2FB11D5D96B9
:102D70008C91928D9F5F9F73928F90E008958FEF5B
:102D80009FEF0895FC01538D448D252F30E0842F53
:102D900090E0821B930B541710F0CF960895019783
:102DA000089585E498E1892B49F080E090E0892B33
:102DB00029F00E94451881110C9400000895FC012F
:102DC000A48DA80FB92FB11DA35ABF4F2C91848D8C
:102DD00090E001968F739927848FA689B7892C93E9
:102DE000A089B1898C91837080648C93938D848D3C
:102DF000981306C00288F389E02D80818F7D80833F
:102E00000895CF93DF93EC01888D8823B9F0AA89C8
:102E1000BB89E889F9898C9185FD03C0808186FD95
:102E20000DC00FB607FCF7CF8C9185FFF2CF8081E4
:102E300085FFEDCFCE010E94DF16E9CFDF91CF9164
:102E40000895EF92FF920F931F93CF93DF93EC01BE
:102E5000F62E81E0888F9B8D8C8D98131AC0E8899F
:102E6000F989808185FF15C09FB7F894EE89FF89A5
:102E70006083E889F98980818370806480839FBF43
:102E800081E090E0DF91CF911F910F91FF90EF9043
:102E900008950B8D10E00F5F1F4F0F731127E02E69
:102EA0008C8D8E110CC00FB607FCFACFE889F9891A
:102EB000808185FFF5CFCE010E94DF16F1CFEB8D2B
:102EC000EC0FFD2FF11DE35AFF4FF0829FB7F894EE
:102ED0000B8FEA89FB8980818062D0CFCF92DF920D
:102EE000EF92FF921F93CF93DF93EC016A017B0176
:102EF000122FE889F98982E08083C11481EED80617
:102F0000E104F104A1F060E079E08DE390E0A70135
:102F100096010E944B1E21503109410951095695D5
:102F2000479537952795211580E1380798F0E8896E
:102F3000F989108260E874E88EE190E0A7019601BB
:102F40000E944B1E21503109410951095695479560
:102F500037952795EC85FD853083EE85FF852083A9
:102F6000188EEC89FD891083EA89FB898081806154
:102F70008083EA89FB89808188608083EA89FB8974
:102F8000808180688083EA89FB8980818F7D80834E
:102F9000DF91CF911F91FF90EF90DF90CF90089538
:102FA000CF93DF93EC01E881F9810680F781E02D72
:102FB0000995EA89FB8980818F7E8083EA89FB8974
:102FC0008081877F8083EA89FB8980818F778083F6
:102FD000EA89FB8980818F7D80838A8D898FDF914B
:102FE000CF9108952F932FB72F938F939F93EF93A4
:102FF000FF93E0918E01F0918F018081E091940127
:10300000F091950182FD19C09081809197018F5FA9
:103010008F7320919801821741F0E0919701F0E0C1
:10302000E258FE4F958F80939701FF91EF919F910A
:103030008F912F912FBF2F9118958081F6CF1F92DE
:103040000F920FB60F9211242F933F934F935F93DC
:103050006F937F938F939F93AF93BF93EF93FF9360
:103060008EE791E00E94DF16FF91EF91BF91AF9143
:103070009F918F917F916F915F914F913F912F9190
:103080000F900FBE0F901F9018958EE791E00E9451
:1030900095169C0181E0232B09F480E008950E949D
:1030A000DD1B0E94DD1B1F920F920FB60F921124A1
:1030B0002F933F934F935F936F937F938F939F9340
:1030C000AF93BF93EF93FF9380911C0287FF27C0BC
:1030D000109285001092840080911C028F5F809373
:1030E0001C0280911C02082E000C990B20911B02DF
:1030F0002817190629F024F080911C028C30CCF19D
:103100008091840090918500049680349C4908F455
:1031100076C08091840090918500049672C0809161
:103120001C02082E000C990B20911B02281719066F
:1031300099F294F280911C02E82FEE0FFF0BE80F3A
:10314000F11D87FDFA95E35EFD4F808186FFC4CFB8
:1031500080911C02E82FEE0FFF0BE80FF11D87FD99
:10316000FA95E35EFD4F808160E08F730E9401035A
:10317000B3CF809184009091850020911C02E22FB2
:10318000EE0FFF0BE20FF11D27FDFA95E35EFD4FF9
:1031900021813281820F931F909389008093880050
:1031A00080911C02E82FEE0FFF0BE80FF11D87FD49
:1031B000FA95E35EFD4F808186FF10C080911C026E
:1031C000E82FEE0FFF0BE80FF11D87FDFA95E35E88
:1031D000FD4F808161E08F730E940103FF91EF91A9
:1031E000BF91AF919F918F917F916F915F914F911F
:1031F0003F912F910F900FBE0F901F90189580E474
:103200009CE990938900809388008FEF80931C0243
:10321000E5CFFC0180911B028C3090F491E0980F77
:1032200090931B02808390E0FC01EE0FFF1FE80FDC
:10323000F91FE35EFD4F88EB9BE092838183089545
:103240008FEF80830895DF92EF92FF920F931F9389
:10325000CF93DF93EC01D62E7A01890188818C30DF
:1032600008F065C061E08D2D0E94C5022881822F83
:1032700090E0FC01EE0FFF1FE80FF91FE35EFD4F2A
:103280008D2D8F73D82E8081807CD82AD08280E2C9
:1032900092E08E199F0997FD0396959587959595D0
:1032A0008795898380E699E0801B910B97FD0396B3
:1032B00095958795959587958A833CE0822F632F16
:1032C0000E943F1E839FC001112450E040E0BC01DA
:1032D000640F751FFB01EE0FFF1FE60FF71FE35E84
:1032E000FD4F308136FD16C04F5F5F4F4C305105AA
:1032F00071F72C3078F41092800082E08093810086
:103300001092850010928400B19A80916F008260C3
:1033100080936F00E8818E2F90E0FC01EE0FFF1F7D
:10332000E80FF91FE35EFD4F808180648083888110
:10333000DF91CF911F910F91FF90EF90DF90089553
:1033400020E639E040E252E00C942319DC01EC91D4
:103350008E2F90E0FC01EE0FFF1FE80FF91FE35ED8
:10336000FD4F80818F7B80830895FC0120812C306C
:1033700008F03DC0318188E890E0831B910937FD5A
:103380009395880F991F880F991F681779077CF00C
:10339000328188E592E0831B910937FD9395880F70
:1033A000991F880F991F681779070CF4CB014FB745
:1033B000F89430E00297092E000CAA0BBB0B54E0E6
:1033C000880F991FAA1FBB1F5A95D1F763E0B695C6
:1033D000A795979587956A95D1F7F901EE0FFF1F8D
:1033E000E20FF31FE35EFD4F928381834FBF089589
:1033F000AF92BF92CF92DF92EF92FF920F931F9303
:10340000CF93DF9300D000D000D0CDB7DEB78D834F
:103410009E83603282E078070CF04CC0653B7105FA
:1034200014F064EB70E0AD81BE8111968C9148E898
:10343000A42EB12CA81AB10887FDB394AA0CBB1C0A
:10344000AA0CBB1C0B2C000CCC08DD0877FF02C0BB
:1034500070E060E0CB01770FAA0BBB0B89839A83E6
:10346000AB83BC83AD81BE8112962C9188E592E03E
:10347000821B910927FD9395880F991F880F991F2B
:10348000092E000CAA0BBB0BBF93AF939F938F9396
:1034900014EBE12EF12C00E010E020E030E0A90177
:1034A00069817A818B819C810E94D9040F900F9051
:1034B0000F900F908D819E8126960FB6F894DEBFF7
:1034C0000FBECDBFDF91CF911F910F91FF90EF9075
:1034D000DF90CF90BF90AF900C94B519FC01808124
:1034E0008F3FB1F090E0FC01EE0FFF1FE80FF91FD6
:1034F000E35EFD4F8181928133E0880F991F3A95F9
:10350000E1F744E0969587954A95E1F7029608958C
:1035100090E080E008954F925F926F927F92AF9219
:10352000BF92CF92DF92EF92FF920F931F93CF93B0
:10353000DF93CDB7DEB728970FB6F894DEBF0FBE86
:10354000CDBFFC01228188E592E0821B910927FD15
:103550009395880F991F880F991F9C01990F440B11
:10356000550B29833A834B835C83818138E8432E52
:10357000512C481A510887FD5394440C551C440C97
:10358000551C052C000C66087708CF010E946E1AA6
:1035900001969C01990F440B550B2D833E834F835D
:1035A00058871F921F921F9284EB8F93A12CB12CEE
:1035B0006501E980FA800B811C81A30192016D8174
:1035C0007E818F8198850E94D9040F900F900F9073
:1035D0000F90CB0128960FB6F894DEBF0FBECDBF7B
:1035E000DF91CF911F910F91FF90EF90DF90CF90DF
:1035F000BF90AF907F906F905F904F900895DC01E7
:10360000EC918E2F90E0FC01EE0FFF1FE80FF91FE9
:10361000E35EFD4F808186FB882780F908950C9436
:10362000C5020C9401030C940E02AB01BC0126E010
:103630008EE791E00C946E17BC018EE791E00C943C
:10364000890FBC018EE791E00C94CA0FBC014AE0DF
:1036500050E08EE791E00C94AF10BC014AE050E0DE
:103660008EE791E00C94B61023E0829FC0011124F4
:103670008F5B9D4F0C94A019E3E08E9FC001112435
:103680008F5B9D4F0C94231923E0829FC00111246E
:103690008F5B9D4F0C94F81923E0829FC001112489
:1036A0008F5B9D4F0C94B51923E0829FC0011124BC
:1036B0008F5B9D4F0C948B1A23E0829FC0011124D5
:1036C0008F5B9D4F0C946E1A23E0829FC0011124E2
:1036D0008F5B9D4F0C94FF1A23E0829FC001112441
:1036E0008F5B9D4F0C94A619682F8EE791E00C9488
:1036F00021178EE791E00C9495168EE791E00C94DB
:10370000AE160E9460020E9459040E942801C1ED79
:10371000D6E10E944A012097E1F30E94D116F9CF29
:10372000089590E080E008950895CF93DF93EC0131
:10373000DB01AB2B81F0FB0101900020E9F7319711
:10374000AF01461B570BE881F9810280F381E02D20
:10375000DF91CF91099490E080E0DF91CF910895BF
:10376000EEE7F1E01382128288EE93E0A0E0B0E091
:1037700084839583A683B78384E691E091838083D5
:1037800085EC90E09587848784EC90E09787868726
:1037900080EC90E0918B808B81EC90E0938B828B1E
:1037A00082EC90E0958B848B86EC90E0978B868BF7
:1037B000118E128E138E148E08950E94A6210F93DF
:1037C0001F93CF93DF93C1E4D2E005E612E0CE0170
:1037D0000E94091923960C171D07C9F7DF91CF9195
:1037E0001F910F9108955058BB27AA270E940B1CC8
:1037F0000C947E1D0E94701D38F00E94771D20F0F1
:1038000039F49F3F19F426F40C946D1D0EF4E095E5
:10381000E7FB0C94671DE92F0E948F1D58F3BA1720
:10382000620773078407950720F079F4A6F50C94D6
:10383000B11D0EF4E0950B2EBA2FA02D0B01B9018E
:1038400090010C01CA01A0011124FF27591B99F016
:10385000593F50F4503E68F11A16F040A22F232F22
:10386000342F4427585FF3CF469537952795A79572
:10387000F0405395C9F77EF41F16BA0B620B730B19
:10388000840BBAF09150A1F0FF0FBB1F661F771F8A
:10389000881FC2F70EC0BA0F621F731F841F48F43F
:1038A000879577956795B795F7959E3F08F0B0CFC8
:1038B0009395880F08F09927EE0F979587950895AF
:1038C0000E94431D08F481E008950E94791C0C9425
:1038D0007E1D0E94771D58F00E94701D40F029F453
:1038E0005F3F29F00C94671D51110C94B21D0C948C
:1038F0006D1D0E948F1D68F39923B1F3552391F339
:10390000951B550BBB27AA2762177307840738F04E
:103910009F5F5F4F220F331F441FAA1FA9F335D0AB
:103920000E2E3AF0E0E832D091505040E695001C5F
:10393000CAF72BD0FE2F29D0660F771F881FBB1F19
:10394000261737074807AB07B0E809F0BB0B802DF7
:10395000BF01FF2793585F4F3AF09E3F510578F023
:103960000C94671D0C94B21D5F3FE4F3983ED4F3B2
:10397000869577956795B795F7959F5FC9F7880FF7
:10398000911D9695879597F90895E1E0660F771F49
:10399000881FBB1F621773078407BA0720F0621BDA
:1039A000730B840BBA0BEE1F88F7E09508950E9405
:1039B000971D88F09F5798F0B92F9927B751B0F00D
:1039C000E1F0660F771F881F991F1AF0BA95C9F7A3
:1039D00014C0B13091F00E94B11DB1E008950C9473
:1039E000B11D672F782F8827B85F39F0B93FCCF326
:1039F000869577956795B395D9F73EF49095809520
:103A0000709561957F4F8F4F9F4F0895E89409C03F
:103A100097FB3EF490958095709561957F4F8F4F01
:103A20009F4F9923A9F0F92F96E9BB279395F69517
:103A3000879577956795B795F111F8CFFAF4BB0F95
:103A400011F460FF1BC06F5F7F4F8F4F9F4F16C0F9
:103A5000882311F096E911C0772321F09EE8872F83
:103A6000762F05C0662371F096E8862F70E060E03F
:103A70002AF09A95660F771F881FDAF7880F9695B8
:103A8000879597F90895990F0008550FAA0BE0E85C
:103A9000FEEF16161706E807F907C0F01216130610
:103AA000E407F50798F0621B730B840B950B39F450
:103AB0000A2661F0232B242B252B21F408950A26B6
:103AC00009F4A140A6958FEF811D811D089597F9F6
:103AD0009F6780E870E060E008959FEF80EC0895B4
:103AE00000240A94161617061806090608950024DD
:103AF0000A9412161306140605060895092E039457
:103B0000000C11F4882352F0BB0F40F4BF2B11F4CA
:103B100060FF04C06F5F7F4F8F4F9F4F089557FD29
:103B20009058440F551F59F05F3F71F04795880F2B
:103B300097FB991F61F09F3F79F0879508951216C2
:103B400013061406551FF2CF4695F1DF08C016166E
:103B500017061806991FF1CF86957105610508941F
:103B60000895E894BB2766277727CB0197F9089536
:103B70000E94431D08F48FEF08950E94D01D0C94FD
:103B80007E1D0E94701D38F00E94771D20F0952345
:103B900011F00C94671D0C946D1D11240C94B21D32
:103BA0000E948F1D70F3959FC1F3950F50E0551F34
:103BB000629FF001729FBB27F00DB11D639FAA2782
:103BC000F00DB11DAA1F649F6627B00DA11D661FD1
:103BD000829F2227B00DA11D621F739FB00DA11DF2
:103BE000621F839FA00D611D221F749F3327A00DAC
:103BF000611D231F849F600D211D822F762F6A2F48
:103C000011249F5750409AF0F1F088234AF0EE0FAC
:103C1000FF1FBB1F661F771F881F91505040A9F7D9
:103C20009E3F510580F00C94671D0C94B21D5F3FC0
:103C3000E4F3983ED4F3869577956795B795F79515
:103C4000E7959F5FC1F7FE2B880F911D969587958D
:103C500097F908950E94431D880B990B0895DB0185
:103C60008F939F930E948C1EBF91AF91A29F800D56
:103C7000911DA39F900DB29F900D11240895991B43
:103C800079E004C0991F961708F0961B881F7A9553
:103C9000C9F780950895A1E21A2EAA1BBB1BFD014E
:103CA0000DC0AA1FBB1FEE1FFF1FA217B307E4071B
:103CB000F50720F0A21BB30BE40BF50B661F771F73
:103CC000881F991F1A9469F7609570958095909553
:103CD0009B01AC01BD01CF010895052E97FB1EF499
:103CE00000940E94841E57FD07D00E944B1E07FCC3
:103CF00003D04EF40C94841E509540953095219538
:103D00003F4F4F4F5F4F0895909580957095619507
:103D10007F4F8F4F9F4F08950E949D1EA59F900D2E
:103D2000B49F900DA49F800D911D11240895EE0F56
:103D3000FF1F0590F491E02D0994A29FB001B39F5D
:103D4000C001A39F700D811D1124911DB29F700DA4
:103D5000811D1124911D0895EF920F931F93CF930E
:103D6000DF9300D000D00F92CDB7DEB7322F0D8396
:103D700054E047FD54E1242F27FD2195E52E032F24
:103D80004D81512F69837A838B839C8369817A81EA
:103D90008B819C810E940E238D81912F0F900F901B
:103DA0000F900F900F90DF91CF911F910F91EF9097
:103DB00008950F931F93CF93DF939C01029710F404
:103DC00022E030E0E0916702F091680290E080E04C
:103DD000B0E0A0E0309791F4009709F445C0821B51
:103DE000930B84309105B8F58A819B81611571052B
:103DF00069F1FB0193838283FE0111C040815181EF
:103E00000281138142175307F0F04217530799F4C8
:103E1000109761F012960C93129713961C9332969A
:103E2000CF01DF91CF911F910F9108950093670209
:103E300010936802F4CF009719F04817590718F447
:103E4000CA01BD01EF01DF01F801C4CF9093680200
:103E500080936702D1CFFE01E80FF91F21933193C0
:103E6000029799838883DCCF8091650290916602E6
:103E7000892B41F48091090190910A019093660287
:103E8000809365028091070190910801009741F4A9
:103E90008DB79EB740910B0150910C01841B950B7F
:103EA00040916502509166024817590708F0B8CF53
:103EB000841B950B8217930708F4B2CFB9016E5F8C
:103EC0007F4F8617970708F4ABCF640F751F709369
:103ED000660260936502FA0121933193A1CFCF93DB
:103EE000DF939C010097E9F0FC0132971382128264
:103EF000C0916702D0916802DE0190E080E02097D7
:103F0000A1F480819181280F391F809165029091E1
:103F100066028217930709F067C0F0936602E09388
:103F20006502DF91CF910895DA01AE17BF0708F05F
:103F300041C012964D915C911397CD0141155105E9
:103F400099F7DC011396FC93EE9312974D915D91D6
:103F5000A40FB51FEA17FB0781F4208131812E5F82
:103F60003F4F240F351FDC0111963C932E93228185
:103F7000338113963C932E931297B0E0A0E08A8190
:103F80009B810097B1F5FE0181919191E80FF91F96
:103F900080916502909166028E179F0711F6109727
:103FA00059F51092680210926702D0936602C0938E
:103FB0006502B7CFB383A28340815181240F351F9F
:103FC000A217B30771F44E5F5F4F2D913C9111978B
:103FD000420F531F5183408312962D913C9133839E
:103FE0002283009709F0ADCFF0936802E093670257
:103FF00098CFDE01EC01C3CF13961C921E9212974C
:10400000D4CFCF92DF92EF92FF92CF93DF93CDB7D1
:10401000DEB72A970FB6F894DEBF0FBECDBF8987F3
:104020009A87A985BA852D913D914D915C912983FF
:104030003A834B835C83232B242B252B41F424E2EE
:1040400039ED4BE557E029833A834B835C836981E3
:104050007A818B819C812DE133EF41E050E00E9419
:104060006D1E69017A01A7EAB1E49B01AC010E94CF
:104070008C1E69837A838B839C83ACEEB4EFA7019B
:1040800096010E9460279B01AC0189819A81AB81D6
:10409000BC81820F931FA41FB51FB7FF03C00197F8
:1040A000A109B048E985FA8580839183A283B3830F
:1040B0009C01AD015F77CA01B9012A960FB6F89449
:1040C000DEBF0FBECDBFDF91CF91FF90EF90DF90AD
:1040D000CF900895CF92DF92EF92FF92CF93DF932C
:1040E000CDB7DEB728970FB6F894DEBF0FBECDBFB1
:1040F00020910D0130910E0140910F01509110015E
:1041000029833A834B835C83232B242B252B41F477
:1041100084E299EDABE5B7E089839A83AB83BC83F6
:1041200069817A818B819C812DE133EF41E050E000
:104130000E946D1E69017A01A7EAB1E49B01AC01FE
:104140000E948C1E69837A838B839C83ACEEB4EFD0
:10415000A70196010E9460279B01AC0189819A8189
:10416000AB81BC81820F931FA41FB51FB7FF03C093
:104170000197A109B04880930D0190930E01A0937F
:104180000F01B09310019C01AD015F77CA01B90125
:1041900028960FB6F894DEBF0FBECDBFDF91CF914A
:1041A000FF90EF90DF90CF90089560930D01709392
:1041B0000E0180930F01909310010895B0E0A0E0EC
:1041C000E4EEF0E20C9469278C01CB010115110596
:1041D00049F40E94D91E8C01C801CDB7DEB7EEE0CC
:1041E0000C948527F801E60FF71F9801225031093A
:1041F000E217F30708F4A7C0D901CD91DC9111971C
:10420000C617D707A0F0C530D10530F3AE01445032
:1042100051094617570700F3C61BD70B2297C193C6
:10422000D1936D937C93CF010E946F1FD5CF4B012B
:104230008C1A9D0A5801AC0EBD1EA0916702B09168
:104240006802712C612CF12CE12C109739F540910A
:104250006502509166024A155B0509F066C0681652
:10426000790608F062C0409107015091080141159C
:10427000510541F44DB75EB760910B0170910C018F
:10428000461B570BE417F50708F05DC0F093660274
:10429000E0936502F901918380839ECF4D915C91FB
:1042A0001197AA15BB05B9F56A0162E0C60ED11CCB
:1042B000C814D90480F1BE01681B790B640F751F07
:1042C0001296DC9012971396AC915B01B2E0AB0EA4
:1042D000B11CB5E0AB16B10480F0D282A383718328
:1042E0006083D9018D939C93E114F10479F0D70197
:1042F0001396FC93EE9312976FCF22964C0F5D1F8F
:10430000F90151834083ED2DFA2FEECFF09368022F
:10431000E093670261CF6416750608F43A017D01E7
:1043200012960D90BC91A02D90CF0E94D91E7C01B9
:10433000009749F0AE01B8010E94FF21C8010E9418
:104340006F1F870149CF10E000E046CF81E090E089
:10435000F8940C949C27662777270C94AD241F9320
:10436000FC0199278827BC01E89411911032E9F3E8
:10437000193010F01E30C8F31B3251F01D3249F4D1
:10438000689406C00E94A722610F711D811D911DB6
:10439000119110531A30B0F33EF4909580957095BA
:1043A00061957F4F8F4F9F4F1F91089591110C94EE
:1043B0003227803219F089508550C8F7089591113D
:1043C000089581548A5108F4805E855A08959111A8
:1043D000089581568A5108F4805285580895FB014A
:1043E000DC0105900D920020E1F70895FC01059095
:1043F0000020E9F7809590958E0F9F1F0895FB018F
:10440000DC0102C001900D9241505040D8F7089550
:104410006817790768F4FB01DC01E40FF51FA40FAE
:10442000B51F02C002900E9241505040D8F7089537
:104430000C94FF21FC018191861721F08823D9F784
:10444000992708953197CF010895FB01DC018D91E3
:10445000019080190110D9F3990B0895FB01DC013B
:1044600001900D920020E1F70895FB01DC0141501D
:10447000504030F08D910190801919F40020B9F767
:10448000881B990B0895FB01DC014150504048F016
:1044900001900D920020C9F701C01D92415050407B
:1044A000E0F70895FC0181E090E00190061609F420
:1044B000CF010020D1F701970895FB0151915523B9
:1044C000A9F0BF01DC014D9145174111E1F759F405
:1044D000CD010190002049F04D9140154111C9F3E3
:1044E000FB014111EFCF81E090E001970895453243
:1044F000510520F4423010F00C948222FB0110820E
:10450000CB010895BB274A3031F4992322F4BDE250
:10451000909581959F4F0C94F5222532310520F41A
:10452000223010F00C949822FA011082CA010895EA
:10453000BB272A3051F4992342F4BDE2909580952F
:10454000709561957F4F8F4F9F4F0C94C822592FC4
:10455000482F372F262F660F771F881F991F660F4A
:10456000771F881F991F620F731F841F951F660F87
:10457000771F881F991F08952532310520F42230B6
:1045800010F00C94C722FA011082CA010895BB27CB
:10459000FA01A62F6217710581059105330B30FBD7
:1045A00066F0AA27660F771F881F991FAA1FA217F8
:1045B00010F0A21B63953850A9F7A05DAA3308F04C
:1045C000A95DA19336F7B111B1931082CA010C9481
:1045D0004D274532510520F4423010F00C94F4225E
:1045E000FB011082CB010895BB27FB015527AA27A9
:1045F000880F991FAA1FA41710F0A41B8395505170
:10460000B9F7A05DAA3308F0A95DA193009779F7E7
:10461000B111B1931192CB010C944D276F927F92FF
:104620009F92AF92BF92CF92DF92EF92FF920F9341
:104630001F93CF93DF93CDB7DEB72D970FB6F894C6
:10464000DEBF0FBECDBF6A01122FB02EFBE36F2E6F
:10465000601608F40BE3FF24F394F00E0F2D27E00F
:10466000AE014F5F5F4F6A877B878C879D876A8526
:104670007B858C859D850E945A26AC01A9808A2D58
:1046800089703DE2813039F03BE2E1FC04C03E2D0F
:104690003170E0FC30E20E2D0071EA2DE870A3FECF
:1046A00059C083E0311184E08117A8F5181B00235D
:1046B00009F43FC0332319F0F60131936F01F6017D
:1046C0003396E2FE3BC08EE4D6018C9391E41196C2
:1046D0009C93119712968C93812F9E2F2F2F30E24F
:1046E000811131C0E10FF11D10828EEF9FEF2D96E9
:1046F0000FB6F894DEBF0FBECDBFDF91CF911F91F3
:104700000F91FF90EF90DF90CF90BF90AF909F9070
:104710007F906F90089510E0CACFE92FF22F419358
:1047200081509E2F2F2F8111F8CFC10ED11C10E088
:10473000C1CF812F9C2D2D2D40E2F5CF8EE6D601E5
:104740008C9391E6C4CFA92FB22F3D9381509A2F1D
:104750002B2FC6CF2A2D2470A2FE47C083E0311133
:1047600084E0811710F4E12FE81B002349F1332383
:1047700019F0D6013D936D01C6010396E2FE25C0F6
:1047800029E4D6012C932EE411962C93119726E45C
:1047900012962C932E2F382F492F50E221111EC034
:1047A000E80FF92FF11DA0CFA92FB22F4D93815003
:1047B0009A2F2B2F8111F8CFCE0ED11CE0E0D7CF4E
:1047C0008E2F9C2D2D2D40E2F5CF29E6D6012C937E
:1047D0002EE611962C93119726E6DACFA32FB42F4D
:1047E0005D9321503A2F4B2FD9CFBA0157FF02C00A
:1047F00070E060E0E1E0F0E0311102C0F0E0E0E004
:10480000CB010196E80FF91F8B2D90E0DC0111968A
:10481000B11002C0B0E0A0E0EA0FFB1F1E171F0698
:1048200019F014F0212F2E1B011194C0D601E22F94
:10483000F0E2E3FE51C0332329F0F60131936F011A
:10484000011108C0F601322FA0E331114BC0C20E96
:10485000D11C20E00F2D040F3A81FA2DF071BF2EEC
:10486000A4FE03C0313309F401501016F4F50930E9
:1048700008F008E0DB017A01E01AF10800271127AF
:10488000081B190BEEE29E2E4A175B0784F1EA160D
:10489000FB066CF5FA01EA1BFB0B66246394712C92
:1048A0006C0E7D1EE60DF71DA18011973601EFEF0E
:1048B0006E1A7E0AA017B107ECF0F601A082AF3F96
:1048C000BA0731F43601E2E06E0E711CF6019182F6
:1048D0006301DACFFD93E150E111FCCFC20ED11C90
:1048E00020E0A9CFA1933150B0CF01E0C3CFE0E3E6
:1048F000AE2EDBCF80959095861797070CF5861B1B
:10490000970B019661507109860F971F4817590739
:1049100041F4363320F4353321F4B11002C081E381
:10492000A82ED601AC92822F962D372D40E2811110
:104930000AC0F301E20FF11D108290E080E0D7CEB3
:1049400090E080E0DFCFA92FB32F4D9381509A2FB5
:104950003B2FEDCF311171CF7DCFA8E0B0E0E3EB7D
:10496000F4E20C946D278D839E836B0161157105B4
:1049700029F0ED81FE81DB01ED93FC93ED80FE805B
:1049800097012F5F3F4F3E832D83D7010C91802FDE
:1049900090E00E94D6215C01892B81F70D32D9F578
:1049A000ED81FE81008197012E5F3F4F3E832D8375
:1049B00011E0ED80FE80F1E0EF1AF10843E050E0F5
:1049C0006AEC70E0C7010E943527892B79F5ED80EC
:1049D000FE8022E0E20EF11C45E050E065EC70E064
:1049E000C7010E943527892B29F4ED80FE8037E02E
:1049F000E30EF11CC114D10419F0D601ED92FC9222
:104A000020E030E040E85FE7112339F120E030E0BA
:104A100040E85FEF22C00B3239F4AD81BE810C91CA
:104A2000F7013296FE83ED8310E0C3CF43E050E000
:104A300062EC70E0C7010E943527892BD1F4C114C4
:104A4000D10409F42EC1ED81FE813296D601ED9399
:104A5000FC9320E030E040EC5FE729833A834B830E
:104A60005C8369817A818B819C812896EAE00C9431
:104A70008927F12CE12C19821A821B821C82F0ED0D
:104A8000F00FFA30B8F5E12FE260812F887012FF45
:104A90000CC0811103C03FEFE31AF30AAD81BE8160
:104AA0000D91BE83AD831E2FEACF882319F041E01C
:104AB000E41AF108A5E0B0E029813A814B815C81DC
:104AC0000E948C1EDC01CB01880F991FAA1FBB1FFF
:104AD0009C01AD012F0F311D411D511D29833A83CA
:104AE0004B835C832839394949495941B8F2E12F50
:104AF000E660D4CFFE3F29F413FD25C0E12FE86026
:104B0000CDCF0F7D0534F9F4ED81FE8180818D32AA
:104B100041F410619F012E5F3F4F818142E050E0E0
:104B200009C02D813E818B3209F455C02F5F3F4F64
:104B300041E050E080538A3008F456C0F901E41B8C
:104B4000F50BFE83ED8311FF0AC0C114D10439F0C7
:104B50002D813E8121503109F60131832083698105
:104B60007A818B819C810E94061D462F572FBC01A4
:104B70004D835E836F8378871370133039F4DC01C3
:104B8000CA01B0588D839E83AF83B8872D813E8143
:104B90004F81588529833A834B835C8320E030E042
:104BA000A9016D817E818F8198850E94601C882378
:104BB00009F457CFF7FE70C0F194E194F10841EE8B
:104BC00050E05E834D83CD80DE8038E1C31AD1088A
:104BD00000E210E038C02E5F3F4FAD81BE811196DC
:104BE0008C919CCF2D813E81F0E8AF16FCE0BF0692
:104BF0005CF4A501440F551F440F551FA40EB51EAC
:104C0000AA0CBB1CA80EB11CD9018D91BE83AD832B
:104C100080538A3038F314FF03C0B194A194B108D3
:104C2000EA0CFB1C90CF25913591459154916981F7
:104C30007A818B819C810E94BD1D69837A838B83DD
:104C40009C83E01AF10A89819A81AB81BC81ED8154
:104C5000FE81E016F1063CF73497FE83ED8315954F
:104C60000795EC15FD0579F78A2F880F8B2F881F84
:104C70008F3F59F020E030E0A90169817A818B8172
:104C80009C810E94601C8111ECCE82E290E09093A6
:104C90006A0280936902E5CE29EF30E03E832D83DE
:104CA00092CF80E090E0A0ECBFE789839A83AB834A
:104CB000BC83D7CE283008F027E03327DA01990FDC
:104CC000311D87FD916000966105710539F43260F0
:104CD0002E5F3D9330E32A95E1F708959F3F30F032
:104CE00080387105610509F03C5F3C5F3D93913070
:104CF00008F08068911DDF93CF931F930F93FF926D
:104D0000EF92192F987F9695E92F96959695E90F32
:104D1000FF27E95AFE4F99273327EE24FF24A701E6
:104D2000E70105900894079428F4360FE71EF81E53
:104D3000491F511D660F771F881F991F0694A1F701
:104D40000590079428F4E70EF81E491F561FC11D51
:104D5000770F881F991F661F0694A1F70590079487
:104D600028F4F80E491F561FC71FD11D880F991F21
:104D7000661F771F0694A1F70590079420F4490F4A
:104D8000561FC71FD81F990F661F771F881F0694CD
:104D9000A9F784911095177041F0D695C79557954E
:104DA0004795F794E7941A95C1F7EDEFF0E0689412
:104DB0001590159135916591959105907FE27395C8
:104DC000E118F10A430B560BC90BD009C0F7E10CEF
:104DD000F11E431F561FC91FD01D7EF4703311F4FE
:104DE0008A95E6CFE894015030F0080F0AF40027C6
:104DF000021708F4202F2395022F7A3328F079E345
:104E00007D932A95E9F710C07D932A9589F606943B
:104E100097956795379517951794E118F10A430B05
:104E2000560BC90BD00998F023957E9173957A3370
:104E300008F070E37C932013B8F77E9170617D9346
:104E400030F0839571E37D9370E32A95E1F71124A7
:104E5000EF90FF900F911F91CF91DF91992787FDE0
:104E600090950895992788270895FB01DC0141500A
:104E7000504088F08D9181341CF08B350CF4805EAD
:104E8000659161341CF06B350CF4605E861B61111A
:104E900071F3990B0895881BFCCFDC01FC01672F8F
:104EA00071917723E1F7329704C07C916D93708301
:104EB0006291AE17BF07C8F30895B7FF0C948C1E1C
:104EC0000E948C1E821B930B08952F923F924F924B
:104ED0005F926F927F928F929F92AF92BF92CF928A
:104EE000DF92EF92FF920F931F93CF93DF93CDB793
:104EF000DEB7CA1BDB0B0FB6F894DEBF0FBECDBF0B
:104F000009942A88398848885F846E847D848C84DB
:104F10009B84AA84B984C884DF80EE80FD800C81E4
:104F20001B81AA81B981CE0FD11D0FB6F894DEBFC7
:0C4F30000FBECDBFED010895F894FFCF37
:104F3C00010001D403D40300006B02200001000027
:104F4C000009000900626F6F743A2041546D656767
:104F5C006133323850207265616479007365727602
:104F6C006F2030206174746163686564206F6E20FB
:104F7C0070696E20000D0A006E616E00696E66002D
:104F8C006F766600000000004F18300F911B941BC9
:104F9C00000000002117300FC21601179516AE162F
:024FAC00A0164D
:00000001FF
